{
  "_format": "hh-sol-artifact-1",
  "contractName": "YoufoundmeNft",
  "sourceName": "contracts/YoufoundmeNft.sol",
  "abi": [
    {
      "inputs": [
        {
          "internalType": "address payable",
          "name": "minter",
          "type": "address"
        }
      ],
      "stateMutability": "nonpayable",
      "type": "constructor"
    },
    {
      "anonymous": false,
      "inputs": [
        {
          "indexed": true,
          "internalType": "address",
          "name": "owner",
          "type": "address"
        },
        {
          "indexed": true,
          "internalType": "address",
          "name": "approved",
          "type": "address"
        },
        {
          "indexed": true,
          "internalType": "uint256",
          "name": "tokenId",
          "type": "uint256"
        }
      ],
      "name": "Approval",
      "type": "event"
    },
    {
      "anonymous": false,
      "inputs": [
        {
          "indexed": true,
          "internalType": "address",
          "name": "owner",
          "type": "address"
        },
        {
          "indexed": true,
          "internalType": "address",
          "name": "operator",
          "type": "address"
        },
        {
          "indexed": false,
          "internalType": "bool",
          "name": "approved",
          "type": "bool"
        }
      ],
      "name": "ApprovalForAll",
      "type": "event"
    },
    {
      "anonymous": false,
      "inputs": [
        {
          "indexed": true,
          "internalType": "bytes32",
          "name": "role",
          "type": "bytes32"
        },
        {
          "indexed": true,
          "internalType": "bytes32",
          "name": "previousAdminRole",
          "type": "bytes32"
        },
        {
          "indexed": true,
          "internalType": "bytes32",
          "name": "newAdminRole",
          "type": "bytes32"
        }
      ],
      "name": "RoleAdminChanged",
      "type": "event"
    },
    {
      "anonymous": false,
      "inputs": [
        {
          "indexed": true,
          "internalType": "bytes32",
          "name": "role",
          "type": "bytes32"
        },
        {
          "indexed": true,
          "internalType": "address",
          "name": "account",
          "type": "address"
        },
        {
          "indexed": true,
          "internalType": "address",
          "name": "sender",
          "type": "address"
        }
      ],
      "name": "RoleGranted",
      "type": "event"
    },
    {
      "anonymous": false,
      "inputs": [
        {
          "indexed": true,
          "internalType": "bytes32",
          "name": "role",
          "type": "bytes32"
        },
        {
          "indexed": true,
          "internalType": "address",
          "name": "account",
          "type": "address"
        },
        {
          "indexed": true,
          "internalType": "address",
          "name": "sender",
          "type": "address"
        }
      ],
      "name": "RoleRevoked",
      "type": "event"
    },
    {
      "anonymous": false,
      "inputs": [
        {
          "indexed": true,
          "internalType": "address",
          "name": "from",
          "type": "address"
        },
        {
          "indexed": true,
          "internalType": "address",
          "name": "to",
          "type": "address"
        },
        {
          "indexed": true,
          "internalType": "uint256",
          "name": "tokenId",
          "type": "uint256"
        }
      ],
      "name": "Transfer",
      "type": "event"
    },
    {
      "inputs": [],
      "name": "DEFAULT_ADMIN_ROLE",
      "outputs": [
        {
          "internalType": "bytes32",
          "name": "",
          "type": "bytes32"
        }
      ],
      "stateMutability": "view",
      "type": "function"
    },
    {
      "inputs": [],
      "name": "MINTER_ROLE",
      "outputs": [
        {
          "internalType": "bytes32",
          "name": "",
          "type": "bytes32"
        }
      ],
      "stateMutability": "view",
      "type": "function"
    },
    {
      "inputs": [
        {
          "internalType": "address",
          "name": "to",
          "type": "address"
        },
        {
          "internalType": "uint256",
          "name": "tokenId",
          "type": "uint256"
        }
      ],
      "name": "approve",
      "outputs": [],
      "stateMutability": "nonpayable",
      "type": "function"
    },
    {
      "inputs": [],
      "name": "availableToWithdraw",
      "outputs": [
        {
          "internalType": "uint256",
          "name": "",
          "type": "uint256"
        }
      ],
      "stateMutability": "view",
      "type": "function"
    },
    {
      "inputs": [
        {
          "internalType": "address",
          "name": "owner",
          "type": "address"
        }
      ],
      "name": "balanceOf",
      "outputs": [
        {
          "internalType": "uint256",
          "name": "",
          "type": "uint256"
        }
      ],
      "stateMutability": "view",
      "type": "function"
    },
    {
      "inputs": [
        {
          "internalType": "uint256",
          "name": "tokenId",
          "type": "uint256"
        }
      ],
      "name": "getApproved",
      "outputs": [
        {
          "internalType": "address",
          "name": "",
          "type": "address"
        }
      ],
      "stateMutability": "view",
      "type": "function"
    },
    {
      "inputs": [],
      "name": "getChainID",
      "outputs": [
        {
          "internalType": "uint256",
          "name": "",
          "type": "uint256"
        }
      ],
      "stateMutability": "view",
      "type": "function"
    },
    {
      "inputs": [
        {
          "internalType": "bytes32",
          "name": "role",
          "type": "bytes32"
        }
      ],
      "name": "getRoleAdmin",
      "outputs": [
        {
          "internalType": "bytes32",
          "name": "",
          "type": "bytes32"
        }
      ],
      "stateMutability": "view",
      "type": "function"
    },
    {
      "inputs": [
        {
          "internalType": "bytes32",
          "name": "role",
          "type": "bytes32"
        },
        {
          "internalType": "address",
          "name": "account",
          "type": "address"
        }
      ],
      "name": "grantRole",
      "outputs": [],
      "stateMutability": "nonpayable",
      "type": "function"
    },
    {
      "inputs": [
        {
          "internalType": "bytes32",
          "name": "role",
          "type": "bytes32"
        },
        {
          "internalType": "address",
          "name": "account",
          "type": "address"
        }
      ],
      "name": "hasRole",
      "outputs": [
        {
          "internalType": "bool",
          "name": "",
          "type": "bool"
        }
      ],
      "stateMutability": "view",
      "type": "function"
    },
    {
      "inputs": [
        {
          "internalType": "address",
          "name": "owner",
          "type": "address"
        },
        {
          "internalType": "address",
          "name": "operator",
          "type": "address"
        }
      ],
      "name": "isApprovedForAll",
      "outputs": [
        {
          "internalType": "bool",
          "name": "",
          "type": "bool"
        }
      ],
      "stateMutability": "view",
      "type": "function"
    },
    {
      "inputs": [],
      "name": "name",
      "outputs": [
        {
          "internalType": "string",
          "name": "",
          "type": "string"
        }
      ],
      "stateMutability": "view",
      "type": "function"
    },
    {
      "inputs": [
        {
          "internalType": "uint256",
          "name": "tokenId",
          "type": "uint256"
        }
      ],
      "name": "ownerOf",
      "outputs": [
        {
          "internalType": "address",
          "name": "",
          "type": "address"
        }
      ],
      "stateMutability": "view",
      "type": "function"
    },
    {
      "inputs": [
        {
          "internalType": "address",
          "name": "redeemer",
          "type": "address"
        },
        {
          "components": [
            {
              "internalType": "uint256",
              "name": "tokenId",
              "type": "uint256"
            },
            {
              "internalType": "uint256",
              "name": "minPrice",
              "type": "uint256"
            },
            {
              "internalType": "string",
              "name": "uri",
              "type": "string"
            },
            {
              "internalType": "bytes",
              "name": "signature",
              "type": "bytes"
            }
          ],
          "internalType": "struct YoufoundmeNft.NFTVoucher",
          "name": "voucher",
          "type": "tuple"
        }
      ],
      "name": "redeem",
      "outputs": [
        {
          "internalType": "uint256",
          "name": "",
          "type": "uint256"
        }
      ],
      "stateMutability": "payable",
      "type": "function"
    },
    {
      "inputs": [
        {
          "internalType": "bytes32",
          "name": "role",
          "type": "bytes32"
        },
        {
          "internalType": "address",
          "name": "account",
          "type": "address"
        }
      ],
      "name": "renounceRole",
      "outputs": [],
      "stateMutability": "nonpayable",
      "type": "function"
    },
    {
      "inputs": [
        {
          "internalType": "bytes32",
          "name": "role",
          "type": "bytes32"
        },
        {
          "internalType": "address",
          "name": "account",
          "type": "address"
        }
      ],
      "name": "revokeRole",
      "outputs": [],
      "stateMutability": "nonpayable",
      "type": "function"
    },
    {
      "inputs": [
        {
          "internalType": "address",
          "name": "from",
          "type": "address"
        },
        {
          "internalType": "address",
          "name": "to",
          "type": "address"
        },
        {
          "internalType": "uint256",
          "name": "tokenId",
          "type": "uint256"
        }
      ],
      "name": "safeTransferFrom",
      "outputs": [],
      "stateMutability": "nonpayable",
      "type": "function"
    },
    {
      "inputs": [
        {
          "internalType": "address",
          "name": "from",
          "type": "address"
        },
        {
          "internalType": "address",
          "name": "to",
          "type": "address"
        },
        {
          "internalType": "uint256",
          "name": "tokenId",
          "type": "uint256"
        },
        {
          "internalType": "bytes",
          "name": "_data",
          "type": "bytes"
        }
      ],
      "name": "safeTransferFrom",
      "outputs": [],
      "stateMutability": "nonpayable",
      "type": "function"
    },
    {
      "inputs": [
        {
          "internalType": "address",
          "name": "operator",
          "type": "address"
        },
        {
          "internalType": "bool",
          "name": "approved",
          "type": "bool"
        }
      ],
      "name": "setApprovalForAll",
      "outputs": [],
      "stateMutability": "nonpayable",
      "type": "function"
    },
    {
      "inputs": [
        {
          "internalType": "bytes4",
          "name": "interfaceId",
          "type": "bytes4"
        }
      ],
      "name": "supportsInterface",
      "outputs": [
        {
          "internalType": "bool",
          "name": "",
          "type": "bool"
        }
      ],
      "stateMutability": "view",
      "type": "function"
    },
    {
      "inputs": [],
      "name": "symbol",
      "outputs": [
        {
          "internalType": "string",
          "name": "",
          "type": "string"
        }
      ],
      "stateMutability": "view",
      "type": "function"
    },
    {
      "inputs": [
        {
          "internalType": "uint256",
          "name": "tokenId",
          "type": "uint256"
        }
      ],
      "name": "tokenURI",
      "outputs": [
        {
          "internalType": "string",
          "name": "",
          "type": "string"
        }
      ],
      "stateMutability": "view",
      "type": "function"
    },
    {
      "inputs": [
        {
          "internalType": "address",
          "name": "from",
          "type": "address"
        },
        {
          "internalType": "address",
          "name": "to",
          "type": "address"
        },
        {
          "internalType": "uint256",
          "name": "tokenId",
          "type": "uint256"
        }
      ],
      "name": "transferFrom",
      "outputs": [],
      "stateMutability": "nonpayable",
      "type": "function"
    },
    {
      "inputs": [],
      "name": "withdraw",
      "outputs": [],
      "stateMutability": "nonpayable",
      "type": "function"
    }
  ],
  "bytecode": "0x6101406040523480156200001257600080fd5b5060405162004e5d38038062004e5d8339818101604052810190620000389190620004b0565b6040518060400160405280601281526020017f596f75666f756e646d652d566f756368657200000000000000000000000000008152506040518060400160405280600181526020017f31000000000000000000000000000000000000000000000000000000000000008152506040518060400160405280600a81526020017f596f75666f756e646d65000000000000000000000000000000000000000000008152506040518060400160405280600381526020017f59464d0000000000000000000000000000000000000000000000000000000000815250816000908051906020019062000128929190620003e9565b50806001908051906020019062000141929190620003e9565b50505060008280519060200120905060008280519060200120905060007f8b73c3c69bb8fe3d512ecc4cf759cc79239f7b179b0ffacaa9a75d522b39400f90508260e081815250508161010081815250504660a08181525050620001ad8184846200023260201b60201c565b608081815250503073ffffffffffffffffffffffffffffffffffffffff1660c08173ffffffffffffffffffffffffffffffffffffffff1660601b8152505080610120818152505050505050506200022b7f9f2df0fed2c77648de5860a4cc508cd0818c85b8b8a1ab4ceeef8d981c8956a6826200026e60201b60201c565b5062000647565b600083838346306040516020016200024f9594939291906200050f565b6040516020818303038152906040528051906020012090509392505050565b6200028082826200028460201b60201c565b5050565b6200029682826200037660201b60201c565b620003725760016007600084815260200190815260200160002060000160008373ffffffffffffffffffffffffffffffffffffffff1673ffffffffffffffffffffffffffffffffffffffff16815260200190815260200160002060006101000a81548160ff02191690831515021790555062000317620003e160201b60201c565b73ffffffffffffffffffffffffffffffffffffffff168173ffffffffffffffffffffffffffffffffffffffff16837f2f8788117e7eff1d82e926ec794901d17c78024a50270940304540a733656f0d60405160405180910390a45b5050565b60006007600084815260200190815260200160002060000160008373ffffffffffffffffffffffffffffffffffffffff1673ffffffffffffffffffffffffffffffffffffffff16815260200190815260200160002060009054906101000a900460ff16905092915050565b600033905090565b828054620003f790620005c8565b90600052602060002090601f0160209004810192826200041b576000855562000467565b82601f106200043657805160ff191683800117855562000467565b8280016001018555821562000467579182015b828111156200046657825182559160200191906001019062000449565b5b5090506200047691906200047a565b5090565b5b80821115620004955760008160009055506001016200047b565b5090565b600081519050620004aa816200062d565b92915050565b600060208284031215620004c357600080fd5b6000620004d38482850162000499565b91505092915050565b620004e7816200056c565b82525050565b620004f88162000594565b82525050565b6200050981620005be565b82525050565b600060a082019050620005266000830188620004ed565b620005356020830187620004ed565b620005446040830186620004ed565b620005536060830185620004fe565b620005626080830184620004dc565b9695505050505050565b600062000579826200059e565b9050919050565b60006200058d826200059e565b9050919050565b6000819050919050565b600073ffffffffffffffffffffffffffffffffffffffff82169050919050565b6000819050919050565b60006002820490506001821680620005e157607f821691505b60208210811415620005f857620005f7620005fe565b5b50919050565b7f4e487b7100000000000000000000000000000000000000000000000000000000600052602260045260246000fd5b620006388162000580565b81146200064457600080fd5b50565b60805160a05160c05160601c60e05161010051610120516147c36200069a6000396000612b2001526000612b6201526000612b4101526000612a7601526000612acc01526000612af501526147c36000f3fe60806040526004361061014b5760003560e01c80636352211e116100b6578063b88d4fde1161006f578063b88d4fde146104a7578063c87b56dd146104d0578063d53913931461050d578063d547741f14610538578063e322ad2b14610561578063e985e9c51461058c5761014b565b80636352211e1461037157806370a08231146103ae57806391d14854146103eb57806395d89b4114610428578063a217fddf14610453578063a22cb4651461047e5761014b565b8063248a9ca311610108578063248a9ca3146102775780632f2ff15d146102b457806336568abe146102dd5780633ccfd60b1461030657806342842e0e1461031d578063564b81ef146103465761014b565b806301ffc9a71461015057806306fdde031461018d578063081812fc146101b857806308708a78146101f5578063095ea7b31461022557806323b872dd1461024e575b600080fd5b34801561015c57600080fd5b5061017760048036038101906101729190613158565b6105c9565b6040516101849190613dbe565b60405180910390f35b34801561019957600080fd5b506101a26105eb565b6040516101af9190613ed1565b60405180910390f35b3480156101c457600080fd5b506101df60048036038101906101da91906131aa565b61067d565b6040516101ec9190613d57565b60405180910390f35b61020f600480360381019061020a9190613063565b610702565b60405161021c9190614213565b60405180910390f35b34801561023157600080fd5b5061024c600480360381019061024791906130b7565b6108a1565b005b34801561025a57600080fd5b5061027560048036038101906102709190612f5d565b6109b9565b005b34801561028357600080fd5b5061029e600480360381019061029991906130f3565b610a19565b6040516102ab9190613dd9565b60405180910390f35b3480156102c057600080fd5b506102db60048036038101906102d6919061311c565b610a39565b005b3480156102e957600080fd5b5061030460048036038101906102ff919061311c565b610a62565b005b34801561031257600080fd5b5061031b610ae5565b005b34801561032957600080fd5b50610344600480360381019061033f9190612f5d565b610c27565b005b34801561035257600080fd5b5061035b610c47565b6040516103689190614213565b60405180910390f35b34801561037d57600080fd5b50610398600480360381019061039391906131aa565b610c54565b6040516103a59190613d57565b60405180910390f35b3480156103ba57600080fd5b506103d560048036038101906103d09190612ef8565b610d06565b6040516103e29190614213565b60405180910390f35b3480156103f757600080fd5b50610412600480360381019061040d919061311c565b610dbe565b60405161041f9190613dbe565b60405180910390f35b34801561043457600080fd5b5061043d610e29565b60405161044a9190613ed1565b60405180910390f35b34801561045f57600080fd5b50610468610ebb565b6040516104759190613dd9565b60405180910390f35b34801561048a57600080fd5b506104a560048036038101906104a09190613027565b610ec2565b005b3480156104b357600080fd5b506104ce60048036038101906104c99190612fac565b610ed8565b005b3480156104dc57600080fd5b506104f760048036038101906104f291906131aa565b610f3a565b6040516105049190613ed1565b60405180910390f35b34801561051957600080fd5b5061052261108c565b60405161052f9190613dd9565b60405180910390f35b34801561054457600080fd5b5061055f600480360381019061055a919061311c565b6110b0565b005b34801561056d57600080fd5b506105766110d9565b6040516105839190614213565b60405180910390f35b34801561059857600080fd5b506105b360048036038101906105ae9190612f21565b611120565b6040516105c09190613dbe565b60405180910390f35b60006105d4826111b4565b806105e457506105e382611296565b5b9050919050565b6060600080546105fa90614597565b80601f016020809104026020016040519081016040528092919081815260200182805461062690614597565b80156106735780601f1061064857610100808354040283529160200191610673565b820191906000526020600020905b81548152906001019060200180831161065657829003601f168201915b5050505050905090565b600061068882611310565b6106c7576040517f08c379a00000000000000000000000000000000000000000000000000000000081526004016106be90614113565b60405180910390fd5b6004600083815260200190815260200160002060009054906101000a900473ffffffffffffffffffffffffffffffffffffffff169050919050565b60008061070e8361137c565b905061073a7f9f2df0fed2c77648de5860a4cc508cd0818c85b8b8a1ab4ceeef8d981c8956a682610dbe565b610779576040517f08c379a0000000000000000000000000000000000000000000000000000000008152600401610770906141b3565b60405180910390fd5b82602001353410156107c0576040517f08c379a00000000000000000000000000000000000000000000000000000000081526004016107b7906140b3565b60405180910390fd5b6107ce8184600001356113ee565b61082e83600001358480604001906107e69190614285565b8080601f016020809104026020016040519081016040528093929190818152602001838380828437600081840152601f19601f820116905080830192505050505050506115bc565b61083d81858560000135611630565b34600860008373ffffffffffffffffffffffffffffffffffffffff1673ffffffffffffffffffffffffffffffffffffffff168152602001908152602001600020600082825461088c919061438b565b92505081905550826000013591505092915050565b60006108ac82610c54565b90508073ffffffffffffffffffffffffffffffffffffffff168373ffffffffffffffffffffffffffffffffffffffff16141561091d576040517f08c379a000000000000000000000000000000000000000000000000000000000815260040161091490614193565b60405180910390fd5b8073ffffffffffffffffffffffffffffffffffffffff1661093c61188c565b73ffffffffffffffffffffffffffffffffffffffff16148061096b575061096a8161096561188c565b611120565b5b6109aa576040517f08c379a00000000000000000000000000000000000000000000000000000000081526004016109a190614013565b60405180910390fd5b6109b48383611894565b505050565b6109ca6109c461188c565b8261194d565b610a09576040517f08c379a0000000000000000000000000000000000000000000000000000000008152600401610a00906141d3565b60405180910390fd5b610a14838383611630565b505050565b600060076000838152602001908152602001600020600101549050919050565b610a4282610a19565b610a5381610a4e61188c565b611a2b565b610a5d8383611ac8565b505050565b610a6a61188c565b73ffffffffffffffffffffffffffffffffffffffff168173ffffffffffffffffffffffffffffffffffffffff1614610ad7576040517f08c379a0000000000000000000000000000000000000000000000000000000008152600401610ace906141f3565b60405180910390fd5b610ae18282611ba9565b5050565b610b0f7f9f2df0fed2c77648de5860a4cc508cd0818c85b8b8a1ab4ceeef8d981c8956a633610dbe565b610b4e576040517f08c379a0000000000000000000000000000000000000000000000000000000008152600401610b4590614173565b60405180910390fd5b60003390506000600860008373ffffffffffffffffffffffffffffffffffffffff1673ffffffffffffffffffffffffffffffffffffffff1681526020019081526020016000205490506000600860008473ffffffffffffffffffffffffffffffffffffffff1673ffffffffffffffffffffffffffffffffffffffff168152602001908152602001600020819055508173ffffffffffffffffffffffffffffffffffffffff166108fc829081150290604051600060405180830381858888f19350505050158015610c22573d6000803e3d6000fd5b505050565b610c4283838360405180602001604052806000815250610ed8565b505050565b6000804690508091505090565b6000806002600084815260200190815260200160002060009054906101000a900473ffffffffffffffffffffffffffffffffffffffff169050600073ffffffffffffffffffffffffffffffffffffffff168173ffffffffffffffffffffffffffffffffffffffff161415610cfd576040517f08c379a0000000000000000000000000000000000000000000000000000000008152600401610cf490614053565b60405180910390fd5b80915050919050565b60008073ffffffffffffffffffffffffffffffffffffffff168273ffffffffffffffffffffffffffffffffffffffff161415610d77576040517f08c379a0000000000000000000000000000000000000000000000000000000008152600401610d6e90614033565b60405180910390fd5b600360008373ffffffffffffffffffffffffffffffffffffffff1673ffffffffffffffffffffffffffffffffffffffff168152602001908152602001600020549050919050565b60006007600084815260200190815260200160002060000160008373ffffffffffffffffffffffffffffffffffffffff1673ffffffffffffffffffffffffffffffffffffffff16815260200190815260200160002060009054906101000a900460ff16905092915050565b606060018054610e3890614597565b80601f0160208091040260200160405190810160405280929190818152602001828054610e6490614597565b8015610eb15780601f10610e8657610100808354040283529160200191610eb1565b820191906000526020600020905b815481529060010190602001808311610e9457829003601f168201915b5050505050905090565b6000801b81565b610ed4610ecd61188c565b8383611c8b565b5050565b610ee9610ee361188c565b8361194d565b610f28576040517f08c379a0000000000000000000000000000000000000000000000000000000008152600401610f1f906141d3565b60405180910390fd5b610f3484848484611df8565b50505050565b6060610f4582611310565b610f84576040517f08c379a0000000000000000000000000000000000000000000000000000000008152600401610f7b906140f3565b60405180910390fd5b6000600660008481526020019081526020016000208054610fa490614597565b80601f0160208091040260200160405190810160405280929190818152602001828054610fd090614597565b801561101d5780601f10610ff25761010080835404028352916020019161101d565b820191906000526020600020905b81548152906001019060200180831161100057829003601f168201915b50505050509050600061102e611e54565b9050600081511415611044578192505050611087565b600082511115611079578082604051602001611061929190613cc2565b60405160208183030381529060405292505050611087565b61108284611e6b565b925050505b919050565b7f9f2df0fed2c77648de5860a4cc508cd0818c85b8b8a1ab4ceeef8d981c8956a681565b6110b982610a19565b6110ca816110c561188c565b611a2b565b6110d48383611ba9565b505050565b6000600860003373ffffffffffffffffffffffffffffffffffffffff1673ffffffffffffffffffffffffffffffffffffffff16815260200190815260200160002054905090565b6000600560008473ffffffffffffffffffffffffffffffffffffffff1673ffffffffffffffffffffffffffffffffffffffff16815260200190815260200160002060008373ffffffffffffffffffffffffffffffffffffffff1673ffffffffffffffffffffffffffffffffffffffff16815260200190815260200160002060009054906101000a900460ff16905092915050565b60007f80ac58cd000000000000000000000000000000000000000000000000000000007bffffffffffffffffffffffffffffffffffffffffffffffffffffffff1916827bffffffffffffffffffffffffffffffffffffffffffffffffffffffff1916148061127f57507f5b5e139f000000000000000000000000000000000000000000000000000000007bffffffffffffffffffffffffffffffffffffffffffffffffffffffff1916827bffffffffffffffffffffffffffffffffffffffffffffffffffffffff1916145b8061128f575061128e82611f12565b5b9050919050565b60007f7965db0b000000000000000000000000000000000000000000000000000000007bffffffffffffffffffffffffffffffffffffffffffffffffffffffff1916827bffffffffffffffffffffffffffffffffffffffffffffffffffffffff191614806113095750611308826111b4565b5b9050919050565b60008073ffffffffffffffffffffffffffffffffffffffff166002600084815260200190815260200160002060009054906101000a900473ffffffffffffffffffffffffffffffffffffffff1673ffffffffffffffffffffffffffffffffffffffff1614159050919050565b60008061138883611f7c565b90506113e68184806060019061139e919061422e565b8080601f016020809104026020016040519081016040528093929190818152602001838380828437600081840152601f19601f82011690508083019250505050505050612007565b915050919050565b600073ffffffffffffffffffffffffffffffffffffffff168273ffffffffffffffffffffffffffffffffffffffff16141561145e576040517f08c379a0000000000000000000000000000000000000000000000000000000008152600401611455906140d3565b60405180910390fd5b61146781611310565b156114a7576040517f08c379a000000000000000000000000000000000000000000000000000000000815260040161149e90613f73565b60405180910390fd5b6114b36000838361202e565b6001600360008473ffffffffffffffffffffffffffffffffffffffff1673ffffffffffffffffffffffffffffffffffffffff1681526020019081526020016000206000828254611503919061438b565b92505081905550816002600083815260200190815260200160002060006101000a81548173ffffffffffffffffffffffffffffffffffffffff021916908373ffffffffffffffffffffffffffffffffffffffff160217905550808273ffffffffffffffffffffffffffffffffffffffff16600073ffffffffffffffffffffffffffffffffffffffff167fddf252ad1be2c89b69c2b068fc378daa952ba7f163c4a11628f55a4df523b3ef60405160405180910390a45050565b6115c582611310565b611604576040517f08c379a00000000000000000000000000000000000000000000000000000000081526004016115fb90614073565b60405180910390fd5b8060066000848152602001908152602001600020908051906020019061162b929190612d54565b505050565b8273ffffffffffffffffffffffffffffffffffffffff1661165082610c54565b73ffffffffffffffffffffffffffffffffffffffff16146116a6576040517f08c379a000000000000000000000000000000000000000000000000000000000815260040161169d90614133565b60405180910390fd5b600073ffffffffffffffffffffffffffffffffffffffff168273ffffffffffffffffffffffffffffffffffffffff161415611716576040517f08c379a000000000000000000000000000000000000000000000000000000000815260040161170d90613f93565b60405180910390fd5b61172183838361202e565b61172c600082611894565b6001600360008573ffffffffffffffffffffffffffffffffffffffff1673ffffffffffffffffffffffffffffffffffffffff168152602001908152602001600020600082825461177c919061446c565b925050819055506001600360008473ffffffffffffffffffffffffffffffffffffffff1673ffffffffffffffffffffffffffffffffffffffff16815260200190815260200160002060008282546117d3919061438b565b92505081905550816002600083815260200190815260200160002060006101000a81548173ffffffffffffffffffffffffffffffffffffffff021916908373ffffffffffffffffffffffffffffffffffffffff160217905550808273ffffffffffffffffffffffffffffffffffffffff168473ffffffffffffffffffffffffffffffffffffffff167fddf252ad1be2c89b69c2b068fc378daa952ba7f163c4a11628f55a4df523b3ef60405160405180910390a4505050565b600033905090565b816004600083815260200190815260200160002060006101000a81548173ffffffffffffffffffffffffffffffffffffffff021916908373ffffffffffffffffffffffffffffffffffffffff160217905550808273ffffffffffffffffffffffffffffffffffffffff1661190783610c54565b73ffffffffffffffffffffffffffffffffffffffff167f8c5be1e5ebec7d5bd14f71427d1e84f3dd0314c0f7b2291e5b200ac8c7c3b92560405160405180910390a45050565b600061195882611310565b611997576040517f08c379a000000000000000000000000000000000000000000000000000000000815260040161198e90613ff3565b60405180910390fd5b60006119a283610c54565b90508073ffffffffffffffffffffffffffffffffffffffff168473ffffffffffffffffffffffffffffffffffffffff161480611a1157508373ffffffffffffffffffffffffffffffffffffffff166119f98461067d565b73ffffffffffffffffffffffffffffffffffffffff16145b80611a225750611a218185611120565b5b91505092915050565b611a358282610dbe565b611ac457611a5a8173ffffffffffffffffffffffffffffffffffffffff166014612033565b611a688360001c6020612033565b604051602001611a79929190613d1d565b6040516020818303038152906040526040517f08c379a0000000000000000000000000000000000000000000000000000000008152600401611abb9190613ed1565b60405180910390fd5b5050565b611ad28282610dbe565b611ba55760016007600084815260200190815260200160002060000160008373ffffffffffffffffffffffffffffffffffffffff1673ffffffffffffffffffffffffffffffffffffffff16815260200190815260200160002060006101000a81548160ff021916908315150217905550611b4a61188c565b73ffffffffffffffffffffffffffffffffffffffff168173ffffffffffffffffffffffffffffffffffffffff16837f2f8788117e7eff1d82e926ec794901d17c78024a50270940304540a733656f0d60405160405180910390a45b5050565b611bb38282610dbe565b15611c875760006007600084815260200190815260200160002060000160008373ffffffffffffffffffffffffffffffffffffffff1673ffffffffffffffffffffffffffffffffffffffff16815260200190815260200160002060006101000a81548160ff021916908315150217905550611c2c61188c565b73ffffffffffffffffffffffffffffffffffffffff168173ffffffffffffffffffffffffffffffffffffffff16837ff6391f5c32d9c69d2a47ea670b442974b53935d1edc7fd64eb21e047a839171b60405160405180910390a45b5050565b8173ffffffffffffffffffffffffffffffffffffffff168373ffffffffffffffffffffffffffffffffffffffff161415611cfa576040517f08c379a0000000000000000000000000000000000000000000000000000000008152600401611cf190613fb3565b60405180910390fd5b80600560008573ffffffffffffffffffffffffffffffffffffffff1673ffffffffffffffffffffffffffffffffffffffff16815260200190815260200160002060008473ffffffffffffffffffffffffffffffffffffffff1673ffffffffffffffffffffffffffffffffffffffff16815260200190815260200160002060006101000a81548160ff0219169083151502179055508173ffffffffffffffffffffffffffffffffffffffff168373ffffffffffffffffffffffffffffffffffffffff167f17307eab39ab6107e8899845ad3d59bd9653f200f220920489ca2b5937696c3183604051611deb9190613dbe565b60405180910390a3505050565b611e03848484611630565b611e0f8484848461232d565b611e4e576040517f08c379a0000000000000000000000000000000000000000000000000000000008152600401611e4590613f53565b60405180910390fd5b50505050565b606060405180602001604052806000815250905090565b6060611e7682611310565b611eb5576040517f08c379a0000000000000000000000000000000000000000000000000000000008152600401611eac90614153565b60405180910390fd5b6000611ebf611e54565b90506000815111611edf5760405180602001604052806000815250611f0a565b80611ee9846124c4565b604051602001611efa929190613cc2565b6040516020818303038152906040525b915050919050565b60007f01ffc9a7000000000000000000000000000000000000000000000000000000007bffffffffffffffffffffffffffffffffffffffffffffffffffffffff1916827bffffffffffffffffffffffffffffffffffffffffffffffffffffffff1916149050919050565b60006120007f6316f9ddd4d59a364f3b95c26bab9d392c3380ace0fff15e91ed76f0d8bcd15a83600001358460200135858060400190611fbc9190614285565b604051611fca929190613ca9565b6040518091039020604051602001611fe59493929190613e47565b60405160208183030381529060405280519060200120612671565b9050919050565b6000806000612016858561268b565b915091506120238161270e565b819250505092915050565b505050565b6060600060028360026120469190614412565b612050919061438b565b67ffffffffffffffff81111561208f577f4e487b7100000000000000000000000000000000000000000000000000000000600052604160045260246000fd5b6040519080825280601f01601f1916602001820160405280156120c15781602001600182028036833780820191505090505b5090507f30000000000000000000000000000000000000000000000000000000000000008160008151811061211f577f4e487b7100000000000000000000000000000000000000000000000000000000600052603260045260246000fd5b60200101907effffffffffffffffffffffffffffffffffffffffffffffffffffffffffffff1916908160001a9053507f7800000000000000000000000000000000000000000000000000000000000000816001815181106121a9577f4e487b7100000000000000000000000000000000000000000000000000000000600052603260045260246000fd5b60200101907effffffffffffffffffffffffffffffffffffffffffffffffffffffffffffff1916908160001a905350600060018460026121e99190614412565b6121f3919061438b565b90505b60018111156122df577f3031323334353637383961626364656600000000000000000000000000000000600f86166010811061225b577f4e487b7100000000000000000000000000000000000000000000000000000000600052603260045260246000fd5b1a60f81b828281518110612298577f4e487b7100000000000000000000000000000000000000000000000000000000600052603260045260246000fd5b60200101907effffffffffffffffffffffffffffffffffffffffffffffffffffffffffffff1916908160001a905350600485901c9450806122d89061456d565b90506121f6565b5060008414612323576040517f08c379a000000000000000000000000000000000000000000000000000000000815260040161231a90613f13565b60405180910390fd5b8091505092915050565b600061234e8473ffffffffffffffffffffffffffffffffffffffff16612a5f565b156124b7578373ffffffffffffffffffffffffffffffffffffffff1663150b7a0261237761188c565b8786866040518563ffffffff1660e01b81526004016123999493929190613d72565b602060405180830381600087803b1580156123b357600080fd5b505af19250505080156123e457506040513d601f19601f820116820180604052508101906123e19190613181565b60015b612467573d8060008114612414576040519150601f19603f3d011682016040523d82523d6000602084013e612419565b606091505b5060008151141561245f576040517f08c379a000000000000000000000000000000000000000000000000000000000815260040161245690613f53565b60405180910390fd5b805181602001fd5b63150b7a0260e01b7bffffffffffffffffffffffffffffffffffffffffffffffffffffffff1916817bffffffffffffffffffffffffffffffffffffffffffffffffffffffff1916149150506124bc565b600190505b949350505050565b6060600082141561250c576040518060400160405280600181526020017f3000000000000000000000000000000000000000000000000000000000000000815250905061266c565b600082905060005b6000821461253e578080612527906145c9565b915050600a8261253791906143e1565b9150612514565b60008167ffffffffffffffff811115612580577f4e487b7100000000000000000000000000000000000000000000000000000000600052604160045260246000fd5b6040519080825280601f01601f1916602001820160405280156125b25781602001600182028036833780820191505090505b5090505b60008514612665576001826125cb919061446c565b9150600a856125da919061461c565b60306125e6919061438b565b60f81b818381518110612622577f4e487b7100000000000000000000000000000000000000000000000000000000600052603260045260246000fd5b60200101907effffffffffffffffffffffffffffffffffffffffffffffffffffffffffffff1916908160001a905350600a8561265e91906143e1565b94506125b6565b8093505050505b919050565b600061268461267e612a72565b83612b8c565b9050919050565b6000806041835114156126cd5760008060006020860151925060408601519150606086015160001a90506126c187828585612bbf565b94509450505050612707565b6040835114156126fe5760008060208501519150604085015190506126f3868383612ccc565b935093505050612707565b60006002915091505b9250929050565b60006004811115612748577f4e487b7100000000000000000000000000000000000000000000000000000000600052602160045260246000fd5b816004811115612781577f4e487b7100000000000000000000000000000000000000000000000000000000600052602160045260246000fd5b141561278c57612a5c565b600160048111156127c6577f4e487b7100000000000000000000000000000000000000000000000000000000600052602160045260246000fd5b8160048111156127ff577f4e487b7100000000000000000000000000000000000000000000000000000000600052602160045260246000fd5b1415612840576040517f08c379a000000000000000000000000000000000000000000000000000000000815260040161283790613ef3565b60405180910390fd5b6002600481111561287a577f4e487b7100000000000000000000000000000000000000000000000000000000600052602160045260246000fd5b8160048111156128b3577f4e487b7100000000000000000000000000000000000000000000000000000000600052602160045260246000fd5b14156128f4576040517f08c379a00000000000000000000000000000000000000000000000000000000081526004016128eb90613f33565b60405180910390fd5b6003600481111561292e577f4e487b7100000000000000000000000000000000000000000000000000000000600052602160045260246000fd5b816004811115612967577f4e487b7100000000000000000000000000000000000000000000000000000000600052602160045260246000fd5b14156129a8576040517f08c379a000000000000000000000000000000000000000000000000000000000815260040161299f90613fd3565b60405180910390fd5b6004808111156129e1577f4e487b7100000000000000000000000000000000000000000000000000000000600052602160045260246000fd5b816004811115612a1a577f4e487b7100000000000000000000000000000000000000000000000000000000600052602160045260246000fd5b1415612a5b576040517f08c379a0000000000000000000000000000000000000000000000000000000008152600401612a5290614093565b60405180910390fd5b5b50565b600080823b905060008111915050919050565b60007f000000000000000000000000000000000000000000000000000000000000000073ffffffffffffffffffffffffffffffffffffffff163073ffffffffffffffffffffffffffffffffffffffff16148015612aee57507f000000000000000000000000000000000000000000000000000000000000000046145b15612b1b577f00000000000000000000000000000000000000000000000000000000000000009050612b89565b612b867f00000000000000000000000000000000000000000000000000000000000000007f00000000000000000000000000000000000000000000000000000000000000007f0000000000000000000000000000000000000000000000000000000000000000612d1a565b90505b90565b60008282604051602001612ba1929190613ce6565b60405160208183030381529060405280519060200120905092915050565b6000807f7fffffffffffffffffffffffffffffff5d576e7357a4501ddfe92f46681b20a08360001c1115612bfa576000600391509150612cc3565b601b8560ff1614158015612c125750601c8560ff1614155b15612c24576000600491509150612cc3565b600060018787878760405160008152602001604052604051612c499493929190613e8c565b6020604051602081039080840390855afa158015612c6b573d6000803e3d6000fd5b505050602060405103519050600073ffffffffffffffffffffffffffffffffffffffff168173ffffffffffffffffffffffffffffffffffffffff161415612cba57600060019250925050612cc3565b80600092509250505b94509492505050565b6000806000807f7fffffffffffffffffffffffffffffffffffffffffffffffffffffffffffffff85169150601b8560ff1c019050612d0c87828885612bbf565b935093505050935093915050565b60008383834630604051602001612d35959493929190613df4565b6040516020818303038152906040528051906020012090509392505050565b828054612d6090614597565b90600052602060002090601f016020900481019282612d825760008555612dc9565b82601f10612d9b57805160ff1916838001178555612dc9565b82800160010185558215612dc9579182015b82811115612dc8578251825591602001919060010190612dad565b5b509050612dd69190612dda565b5090565b5b80821115612df3576000816000905550600101612ddb565b5090565b6000612e0a612e058461430d565b6142dc565b905082815260208101848484011115612e2257600080fd5b612e2d84828561452b565b509392505050565b600081359050612e448161471a565b92915050565b600081359050612e5981614731565b92915050565b600081359050612e6e81614748565b92915050565b600081359050612e838161475f565b92915050565b600081519050612e988161475f565b92915050565b600082601f830112612eaf57600080fd5b8135612ebf848260208601612df7565b91505092915050565b600060808284031215612eda57600080fd5b81905092915050565b600081359050612ef281614776565b92915050565b600060208284031215612f0a57600080fd5b6000612f1884828501612e35565b91505092915050565b60008060408385031215612f3457600080fd5b6000612f4285828601612e35565b9250506020612f5385828601612e35565b9150509250929050565b600080600060608486031215612f7257600080fd5b6000612f8086828701612e35565b9350506020612f9186828701612e35565b9250506040612fa286828701612ee3565b9150509250925092565b60008060008060808587031215612fc257600080fd5b6000612fd087828801612e35565b9450506020612fe187828801612e35565b9350506040612ff287828801612ee3565b925050606085013567ffffffffffffffff81111561300f57600080fd5b61301b87828801612e9e565b91505092959194509250565b6000806040838503121561303a57600080fd5b600061304885828601612e35565b925050602061305985828601612e4a565b9150509250929050565b6000806040838503121561307657600080fd5b600061308485828601612e35565b925050602083013567ffffffffffffffff8111156130a157600080fd5b6130ad85828601612ec8565b9150509250929050565b600080604083850312156130ca57600080fd5b60006130d885828601612e35565b92505060206130e985828601612ee3565b9150509250929050565b60006020828403121561310557600080fd5b600061311384828501612e5f565b91505092915050565b6000806040838503121561312f57600080fd5b600061313d85828601612e5f565b925050602061314e85828601612e35565b9150509250929050565b60006020828403121561316a57600080fd5b600061317884828501612e74565b91505092915050565b60006020828403121561319357600080fd5b60006131a184828501612e89565b91505092915050565b6000602082840312156131bc57600080fd5b60006131ca84828501612ee3565b91505092915050565b6131dc816144a0565b82525050565b6131eb816144b2565b82525050565b6131fa816144be565b82525050565b61321161320c826144be565b614612565b82525050565b60006132238385614364565b935061323083858461452b565b82840190509392505050565b60006132478261433d565b6132518185614353565b935061326181856020860161453a565b61326a81614709565b840191505092915050565b600061328082614348565b61328a818561436f565b935061329a81856020860161453a565b6132a381614709565b840191505092915050565b60006132b982614348565b6132c38185614380565b93506132d381856020860161453a565b80840191505092915050565b60006132ec60188361436f565b91507f45434453413a20696e76616c6964207369676e617475726500000000000000006000830152602082019050919050565b600061332c60208361436f565b91507f537472696e67733a20686578206c656e67746820696e73756666696369656e746000830152602082019050919050565b600061336c601f8361436f565b91507f45434453413a20696e76616c6964207369676e6174757265206c656e677468006000830152602082019050919050565b60006133ac60328361436f565b91507f4552433732313a207472616e7366657220746f206e6f6e20455243373231526560008301527f63656976657220696d706c656d656e74657200000000000000000000000000006020830152604082019050919050565b6000613412601c8361436f565b91507f4552433732313a20746f6b656e20616c7265616479206d696e746564000000006000830152602082019050919050565b6000613452600283614380565b91507f19010000000000000000000000000000000000000000000000000000000000006000830152600282019050919050565b600061349260248361436f565b91507f4552433732313a207472616e7366657220746f20746865207a65726f2061646460008301527f72657373000000000000000000000000000000000000000000000000000000006020830152604082019050919050565b60006134f860198361436f565b91507f4552433732313a20617070726f766520746f2063616c6c6572000000000000006000830152602082019050919050565b600061353860228361436f565b91507f45434453413a20696e76616c6964207369676e6174757265202773272076616c60008301527f75650000000000000000000000000000000000000000000000000000000000006020830152604082019050919050565b600061359e602c8361436f565b91507f4552433732313a206f70657261746f7220717565727920666f72206e6f6e657860008301527f697374656e7420746f6b656e00000000000000000000000000000000000000006020830152604082019050919050565b600061360460388361436f565b91507f4552433732313a20617070726f76652063616c6c6572206973206e6f74206f7760008301527f6e6572206e6f7220617070726f76656420666f7220616c6c00000000000000006020830152604082019050919050565b600061366a602a8361436f565b91507f4552433732313a2062616c616e636520717565727920666f7220746865207a6560008301527f726f2061646472657373000000000000000000000000000000000000000000006020830152604082019050919050565b60006136d060298361436f565b91507f4552433732313a206f776e657220717565727920666f72206e6f6e657869737460008301527f656e7420746f6b656e00000000000000000000000000000000000000000000006020830152604082019050919050565b6000613736602e8361436f565b91507f45524337323155524953746f726167653a2055524920736574206f66206e6f6e60008301527f6578697374656e7420746f6b656e0000000000000000000000000000000000006020830152604082019050919050565b600061379c60228361436f565b91507f45434453413a20696e76616c6964207369676e6174757265202776272076616c60008301527f75650000000000000000000000000000000000000000000000000000000000006020830152604082019050919050565b6000613802601c8361436f565b91507f496e73756666696369656e742066756e647320746f2072656465656d000000006000830152602082019050919050565b600061384260208361436f565b91507f4552433732313a206d696e7420746f20746865207a65726f20616464726573736000830152602082019050919050565b600061388260318361436f565b91507f45524337323155524953746f726167653a2055524920717565727920666f722060008301527f6e6f6e6578697374656e7420746f6b656e0000000000000000000000000000006020830152604082019050919050565b60006138e8602c8361436f565b91507f4552433732313a20617070726f76656420717565727920666f72206e6f6e657860008301527f697374656e7420746f6b656e00000000000000000000000000000000000000006020830152604082019050919050565b600061394e60298361436f565b91507f4552433732313a207472616e73666572206f6620746f6b656e2074686174206960008301527f73206e6f74206f776e00000000000000000000000000000000000000000000006020830152604082019050919050565b60006139b4602f8361436f565b91507f4552433732314d657461646174613a2055524920717565727920666f72206e6f60008301527f6e6578697374656e7420746f6b656e00000000000000000000000000000000006020830152604082019050919050565b6000613a1a60248361436f565b91507f4f6e6c7920617574686f72697a6564206d696e746572732063616e207769746860008301527f64726177000000000000000000000000000000000000000000000000000000006020830152604082019050919050565b6000613a8060218361436f565b91507f4552433732313a20617070726f76616c20746f2063757272656e74206f776e6560008301527f72000000000000000000000000000000000000000000000000000000000000006020830152604082019050919050565b6000613ae660218361436f565b91507f5369676e617475726520696e76616c6964206f7220756e617574686f72697a6560008301527f64000000000000000000000000000000000000000000000000000000000000006020830152604082019050919050565b6000613b4c60318361436f565b91507f4552433732313a207472616e736665722063616c6c6572206973206e6f74206f60008301527f776e6572206e6f7220617070726f7665640000000000000000000000000000006020830152604082019050919050565b6000613bb2601783614380565b91507f416363657373436f6e74726f6c3a206163636f756e74200000000000000000006000830152601782019050919050565b6000613bf2601183614380565b91507f206973206d697373696e6720726f6c65200000000000000000000000000000006000830152601182019050919050565b6000613c32602f8361436f565b91507f416363657373436f6e74726f6c3a2063616e206f6e6c792072656e6f756e636560008301527f20726f6c657320666f722073656c6600000000000000000000000000000000006020830152604082019050919050565b613c9481614514565b82525050565b613ca38161451e565b82525050565b6000613cb6828486613217565b91508190509392505050565b6000613cce82856132ae565b9150613cda82846132ae565b91508190509392505050565b6000613cf182613445565b9150613cfd8285613200565b602082019150613d0d8284613200565b6020820191508190509392505050565b6000613d2882613ba5565b9150613d3482856132ae565b9150613d3f82613be5565b9150613d4b82846132ae565b91508190509392505050565b6000602082019050613d6c60008301846131d3565b92915050565b6000608082019050613d8760008301876131d3565b613d9460208301866131d3565b613da16040830185613c8b565b8181036060830152613db3818461323c565b905095945050505050565b6000602082019050613dd360008301846131e2565b92915050565b6000602082019050613dee60008301846131f1565b92915050565b600060a082019050613e0960008301886131f1565b613e1660208301876131f1565b613e2360408301866131f1565b613e306060830185613c8b565b613e3d60808301846131d3565b9695505050505050565b6000608082019050613e5c60008301876131f1565b613e696020830186613c8b565b613e766040830185613c8b565b613e8360608301846131f1565b95945050505050565b6000608082019050613ea160008301876131f1565b613eae6020830186613c9a565b613ebb60408301856131f1565b613ec860608301846131f1565b95945050505050565b60006020820190508181036000830152613eeb8184613275565b905092915050565b60006020820190508181036000830152613f0c816132df565b9050919050565b60006020820190508181036000830152613f2c8161331f565b9050919050565b60006020820190508181036000830152613f4c8161335f565b9050919050565b60006020820190508181036000830152613f6c8161339f565b9050919050565b60006020820190508181036000830152613f8c81613405565b9050919050565b60006020820190508181036000830152613fac81613485565b9050919050565b60006020820190508181036000830152613fcc816134eb565b9050919050565b60006020820190508181036000830152613fec8161352b565b9050919050565b6000602082019050818103600083015261400c81613591565b9050919050565b6000602082019050818103600083015261402c816135f7565b9050919050565b6000602082019050818103600083015261404c8161365d565b9050919050565b6000602082019050818103600083015261406c816136c3565b9050919050565b6000602082019050818103600083015261408c81613729565b9050919050565b600060208201905081810360008301526140ac8161378f565b9050919050565b600060208201905081810360008301526140cc816137f5565b9050919050565b600060208201905081810360008301526140ec81613835565b9050919050565b6000602082019050818103600083015261410c81613875565b9050919050565b6000602082019050818103600083015261412c816138db565b9050919050565b6000602082019050818103600083015261414c81613941565b9050919050565b6000602082019050818103600083015261416c816139a7565b9050919050565b6000602082019050818103600083015261418c81613a0d565b9050919050565b600060208201905081810360008301526141ac81613a73565b9050919050565b600060208201905081810360008301526141cc81613ad9565b9050919050565b600060208201905081810360008301526141ec81613b3f565b9050919050565b6000602082019050818103600083015261420c81613c25565b9050919050565b60006020820190506142286000830184613c8b565b92915050565b6000808335600160200384360303811261424757600080fd5b80840192508235915067ffffffffffffffff82111561426557600080fd5b60208301925060018202360383131561427d57600080fd5b509250929050565b6000808335600160200384360303811261429e57600080fd5b80840192508235915067ffffffffffffffff8211156142bc57600080fd5b6020830192506001820236038313156142d457600080fd5b509250929050565b6000604051905081810181811067ffffffffffffffff82111715614303576143026146da565b5b8060405250919050565b600067ffffffffffffffff821115614328576143276146da565b5b601f19601f8301169050602081019050919050565b600081519050919050565b600081519050919050565b600082825260208201905092915050565b600081905092915050565b600082825260208201905092915050565b600081905092915050565b600061439682614514565b91506143a183614514565b9250827fffffffffffffffffffffffffffffffffffffffffffffffffffffffffffffffff038211156143d6576143d561464d565b5b828201905092915050565b60006143ec82614514565b91506143f783614514565b9250826144075761440661467c565b5b828204905092915050565b600061441d82614514565b915061442883614514565b9250817fffffffffffffffffffffffffffffffffffffffffffffffffffffffffffffffff04831182151516156144615761446061464d565b5b828202905092915050565b600061447782614514565b915061448283614514565b9250828210156144955761449461464d565b5b828203905092915050565b60006144ab826144f4565b9050919050565b60008115159050919050565b6000819050919050565b60007fffffffff0000000000000000000000000000000000000000000000000000000082169050919050565b600073ffffffffffffffffffffffffffffffffffffffff82169050919050565b6000819050919050565b600060ff82169050919050565b82818337600083830152505050565b60005b8381101561455857808201518184015260208101905061453d565b83811115614567576000848401525b50505050565b600061457882614514565b9150600082141561458c5761458b61464d565b5b600182039050919050565b600060028204905060018216806145af57607f821691505b602082108114156145c3576145c26146ab565b5b50919050565b60006145d482614514565b91507fffffffffffffffffffffffffffffffffffffffffffffffffffffffffffffffff8214156146075761460661464d565b5b600182019050919050565b6000819050919050565b600061462782614514565b915061463283614514565b9250826146425761464161467c565b5b828206905092915050565b7f4e487b7100000000000000000000000000000000000000000000000000000000600052601160045260246000fd5b7f4e487b7100000000000000000000000000000000000000000000000000000000600052601260045260246000fd5b7f4e487b7100000000000000000000000000000000000000000000000000000000600052602260045260246000fd5b7f4e487b7100000000000000000000000000000000000000000000000000000000600052604160045260246000fd5b6000601f19601f8301169050919050565b614723816144a0565b811461472e57600080fd5b50565b61473a816144b2565b811461474557600080fd5b50565b614751816144be565b811461475c57600080fd5b50565b614768816144c8565b811461477357600080fd5b50565b61477f81614514565b811461478a57600080fd5b5056fea2646970667358221220ff01f841a5137869a0a9c32828b85e9da410b805e0ccd74b513a5c3da2ee26cd64736f6c63430008000033",
  "linkReferences": {},
  "deployedLinkReferences": {}
}