{
  "_format": "hh-sol-artifact-1",
  "contractName": "YoufoundmeMarket",
  "sourceName": "contracts/YoufoundmeMarket.sol",
  "abi": [
    {
      "inputs": [],
      "stateMutability": "nonpayable",
      "type": "constructor"
    },
    {
      "anonymous": false,
      "inputs": [
        {
          "indexed": true,
          "internalType": "address",
          "name": "beneficiary",
          "type": "address"
        },
        {
          "indexed": false,
          "internalType": "uint256",
          "name": "amount",
          "type": "uint256"
        }
      ],
      "name": "BalanceWithdrawn",
      "type": "event"
    },
    {
      "anonymous": false,
      "inputs": [
        {
          "indexed": false,
          "internalType": "uint256",
          "name": "newprice",
          "type": "uint256"
        }
      ],
      "name": "PriceChanged",
      "type": "event"
    },
    {
      "inputs": [],
      "name": "balanceOf",
      "outputs": [
        {
          "internalType": "uint256",
          "name": "",
          "type": "uint256"
        }
      ],
      "stateMutability": "view",
      "type": "function"
    },
    {
      "inputs": [],
      "name": "getPrice",
      "outputs": [
        {
          "internalType": "uint256",
          "name": "",
          "type": "uint256"
        }
      ],
      "stateMutability": "view",
      "type": "function"
    },
    {
      "inputs": [
        {
          "internalType": "address",
          "name": "nftcontract",
          "type": "address"
        },
        {
          "internalType": "address",
          "name": "recipient",
          "type": "address"
        },
        {
          "internalType": "uint256",
          "name": "tokenId",
          "type": "uint256"
        },
        {
          "internalType": "string",
          "name": "tokenURI",
          "type": "string"
        }
      ],
      "name": "purchasenft",
      "outputs": [],
      "stateMutability": "payable",
      "type": "function"
    },
    {
      "inputs": [
        {
          "internalType": "uint256",
          "name": "newprice",
          "type": "uint256"
        }
      ],
      "name": "setPrice",
      "outputs": [],
      "stateMutability": "nonpayable",
      "type": "function"
    },
    {
      "inputs": [
        {
          "internalType": "uint256",
          "name": "amount",
          "type": "uint256"
        }
      ],
      "name": "withdrawBalance",
      "outputs": [],
      "stateMutability": "nonpayable",
      "type": "function"
    }
  ],
  "bytecode": "0x608060405234801561001057600080fd5b50336000806101000a81548173ffffffffffffffffffffffffffffffffffffffff021916908373ffffffffffffffffffffffffffffffffffffffff160217905550610af6806100606000396000f3fe60806040526004361061004a5760003560e01c8063223157a01461004f578063722713f71461006b57806391b7f5ed1461009657806398d5fdca146100bf578063da76d5cd146100ea575b600080fd5b61006960048036038101906100649190610558565b610113565b005b34801561007757600080fd5b5061008061024a565b60405161008d9190610860565b60405180910390f35b3480156100a257600080fd5b506100bd60048036038101906100b891906105fc565b610254565b005b3480156100cb57600080fd5b506100d4610323565b6040516100e19190610860565b60405180910390f35b3480156100f657600080fd5b50610111600480360381019061010c91906105fc565b61032d565b005b6003543410610157576040517f08c379a000000000000000000000000000000000000000000000000000000000815260040161014e90610820565b60405180910390fd5b60008473ffffffffffffffffffffffffffffffffffffffff16631e5769128585856040518463ffffffff1660e01b8152600401610196939291906107a2565b602060405180830381600087803b1580156101b057600080fd5b505af11580156101c4573d6000803e3d6000fd5b505050506040513d601f19601f820116820180604052508101906101e891906105d3565b90508061022a576040517f08c379a000000000000000000000000000000000000000000000000000000000815260040161022190610840565b60405180910390fd5b346002600082825461023c91906108f8565b925050819055505050505050565b6000600254905090565b60008054906101000a900473ffffffffffffffffffffffffffffffffffffffff1673ffffffffffffffffffffffffffffffffffffffff163373ffffffffffffffffffffffffffffffffffffffff16146102e2576040517f08c379a00000000000000000000000000000000000000000000000000000000081526004016102d990610800565b60405180910390fd5b806003819055507fa6dc15bdb68da224c66db4b3838d9a2b205138e8cff6774e57d0af91e196d622816040516103189190610860565b60405180910390a150565b6000600354905090565b60008054906101000a900473ffffffffffffffffffffffffffffffffffffffff1673ffffffffffffffffffffffffffffffffffffffff163373ffffffffffffffffffffffffffffffffffffffff16146103bb576040517f08c379a00000000000000000000000000000000000000000000000000000000081526004016103b290610800565b60405180910390fd5b806002541015610400576040517f08c379a00000000000000000000000000000000000000000000000000000000081526004016103f7906107e0565b60405180910390fd5b3373ffffffffffffffffffffffffffffffffffffffff166108fc829081150290604051600060405180830381858888f19350505050158015610446573d6000803e3d6000fd5b508060026000828254610459919061094e565b925050819055503373ffffffffffffffffffffffffffffffffffffffff167fddc398b321237a8d40ac914388309c2f52a08c134e4dc4ce61e32f57cb7d80f1826040516104a69190610860565b60405180910390a250565b60006104c46104bf846108ac565b61087b565b9050828152602081018484840111156104dc57600080fd5b6104e78482856109ca565b509392505050565b6000813590506104fe81610a7b565b92915050565b60008151905061051381610a92565b92915050565b600082601f83011261052a57600080fd5b813561053a8482602086016104b1565b91505092915050565b60008135905061055281610aa9565b92915050565b6000806000806080858703121561056e57600080fd5b600061057c878288016104ef565b945050602061058d878288016104ef565b935050604061059e87828801610543565b925050606085013567ffffffffffffffff8111156105bb57600080fd5b6105c787828801610519565b91505092959194509250565b6000602082840312156105e557600080fd5b60006105f384828501610504565b91505092915050565b60006020828403121561060e57600080fd5b600061061c84828501610543565b91505092915050565b61062e81610982565b82525050565b600061063f826108dc565b61064981856108e7565b93506106598185602086016109d9565b61066281610a6a565b840191505092915050565b600061067a6029836108e7565b91507f596f7520646f6e2774206861766520656e6f7567682062616c616e636520746f60008301527f20776974686472617700000000000000000000000000000000000000000000006020830152604082019050919050565b60006106e0601f836108e7565b91507f4f776e61626c653a20596f7520617265206e6f7420746865206f776e65722e006000830152602082019050919050565b6000610720600f836108e7565b91507f6e6f7420656e6f756768207061696400000000000000000000000000000000006000830152602082019050919050565b60006107606014836108e7565b91507f4661696c656420746f20637265617465204e46540000000000000000000000006000830152602082019050919050565b61079c816109c0565b82525050565b60006060820190506107b76000830186610625565b6107c46020830185610793565b81810360408301526107d68184610634565b9050949350505050565b600060208201905081810360008301526107f98161066d565b9050919050565b60006020820190508181036000830152610819816106d3565b9050919050565b6000602082019050818103600083015261083981610713565b9050919050565b6000602082019050818103600083015261085981610753565b9050919050565b60006020820190506108756000830184610793565b92915050565b6000604051905081810181811067ffffffffffffffff821117156108a2576108a1610a3b565b5b8060405250919050565b600067ffffffffffffffff8211156108c7576108c6610a3b565b5b601f19601f8301169050602081019050919050565b600081519050919050565b600082825260208201905092915050565b6000610903826109c0565b915061090e836109c0565b9250827fffffffffffffffffffffffffffffffffffffffffffffffffffffffffffffffff0382111561094357610942610a0c565b5b828201905092915050565b6000610959826109c0565b9150610964836109c0565b92508282101561097757610976610a0c565b5b828203905092915050565b600061098d826109a0565b9050919050565b60008115159050919050565b600073ffffffffffffffffffffffffffffffffffffffff82169050919050565b6000819050919050565b82818337600083830152505050565b60005b838110156109f75780820151818401526020810190506109dc565b83811115610a06576000848401525b50505050565b7f4e487b7100000000000000000000000000000000000000000000000000000000600052601160045260246000fd5b7f4e487b7100000000000000000000000000000000000000000000000000000000600052604160045260246000fd5b6000601f19601f8301169050919050565b610a8481610982565b8114610a8f57600080fd5b50565b610a9b81610994565b8114610aa657600080fd5b50565b610ab2816109c0565b8114610abd57600080fd5b5056fea26469706673582212202883a01667e936f1210f45dc09fea5262b3cb0555c0771e668ea792531d7030564736f6c63430008000033",
  "linkReferences": {},
  "deployedLinkReferences": {}
}