{
  "_format": "hh-sol-artifact-1",
  "contractName": "Youfoundme",
  "sourceName": "contracts/Youfoundme.sol",
  "abi": [
    {
      "inputs": [],
      "stateMutability": "nonpayable",
      "type": "constructor"
    },
    {
      "anonymous": false,
      "inputs": [
        {
          "indexed": true,
          "internalType": "address",
          "name": "owner",
          "type": "address"
        },
        {
          "indexed": true,
          "internalType": "address",
          "name": "approved",
          "type": "address"
        },
        {
          "indexed": true,
          "internalType": "uint256",
          "name": "tokenId",
          "type": "uint256"
        }
      ],
      "name": "Approval",
      "type": "event"
    },
    {
      "anonymous": false,
      "inputs": [
        {
          "indexed": true,
          "internalType": "address",
          "name": "owner",
          "type": "address"
        },
        {
          "indexed": true,
          "internalType": "address",
          "name": "operator",
          "type": "address"
        },
        {
          "indexed": false,
          "internalType": "bool",
          "name": "approved",
          "type": "bool"
        }
      ],
      "name": "ApprovalForAll",
      "type": "event"
    },
    {
      "anonymous": false,
      "inputs": [
        {
          "indexed": true,
          "internalType": "address",
          "name": "previousOwner",
          "type": "address"
        },
        {
          "indexed": true,
          "internalType": "address",
          "name": "newOwner",
          "type": "address"
        }
      ],
      "name": "OwnershipTransferred",
      "type": "event"
    },
    {
      "anonymous": false,
      "inputs": [
        {
          "indexed": true,
          "internalType": "address",
          "name": "from",
          "type": "address"
        },
        {
          "indexed": true,
          "internalType": "address",
          "name": "to",
          "type": "address"
        },
        {
          "indexed": true,
          "internalType": "uint256",
          "name": "tokenId",
          "type": "uint256"
        }
      ],
      "name": "Transfer",
      "type": "event"
    },
    {
      "inputs": [
        {
          "internalType": "address",
          "name": "to",
          "type": "address"
        },
        {
          "internalType": "uint256",
          "name": "tokenId",
          "type": "uint256"
        }
      ],
      "name": "approve",
      "outputs": [],
      "stateMutability": "nonpayable",
      "type": "function"
    },
    {
      "inputs": [
        {
          "internalType": "address",
          "name": "owner",
          "type": "address"
        }
      ],
      "name": "balanceOf",
      "outputs": [
        {
          "internalType": "uint256",
          "name": "",
          "type": "uint256"
        }
      ],
      "stateMutability": "view",
      "type": "function"
    },
    {
      "inputs": [],
      "name": "decimals",
      "outputs": [
        {
          "internalType": "uint8",
          "name": "",
          "type": "uint8"
        }
      ],
      "stateMutability": "pure",
      "type": "function"
    },
    {
      "inputs": [
        {
          "internalType": "uint256",
          "name": "tokenId",
          "type": "uint256"
        }
      ],
      "name": "getApproved",
      "outputs": [
        {
          "internalType": "address",
          "name": "",
          "type": "address"
        }
      ],
      "stateMutability": "view",
      "type": "function"
    },
    {
      "inputs": [
        {
          "internalType": "address",
          "name": "owner",
          "type": "address"
        },
        {
          "internalType": "address",
          "name": "operator",
          "type": "address"
        }
      ],
      "name": "isApprovedForAll",
      "outputs": [
        {
          "internalType": "bool",
          "name": "",
          "type": "bool"
        }
      ],
      "stateMutability": "view",
      "type": "function"
    },
    {
      "inputs": [
        {
          "internalType": "address",
          "name": "recipient",
          "type": "address"
        },
        {
          "internalType": "uint256",
          "name": "tokenId",
          "type": "uint256"
        },
        {
          "internalType": "string",
          "name": "tokenURI",
          "type": "string"
        }
      ],
      "name": "mintNFT",
      "outputs": [
        {
          "internalType": "bool",
          "name": "",
          "type": "bool"
        }
      ],
      "stateMutability": "nonpayable",
      "type": "function"
    },
    {
      "inputs": [],
      "name": "name",
      "outputs": [
        {
          "internalType": "string",
          "name": "",
          "type": "string"
        }
      ],
      "stateMutability": "view",
      "type": "function"
    },
    {
      "inputs": [],
      "name": "owner",
      "outputs": [
        {
          "internalType": "address",
          "name": "",
          "type": "address"
        }
      ],
      "stateMutability": "view",
      "type": "function"
    },
    {
      "inputs": [
        {
          "internalType": "uint256",
          "name": "tokenId",
          "type": "uint256"
        }
      ],
      "name": "ownerOf",
      "outputs": [
        {
          "internalType": "address",
          "name": "",
          "type": "address"
        }
      ],
      "stateMutability": "view",
      "type": "function"
    },
    {
      "inputs": [],
      "name": "renounceOwnership",
      "outputs": [],
      "stateMutability": "nonpayable",
      "type": "function"
    },
    {
      "inputs": [
        {
          "internalType": "address",
          "name": "from",
          "type": "address"
        },
        {
          "internalType": "address",
          "name": "to",
          "type": "address"
        },
        {
          "internalType": "uint256",
          "name": "tokenId",
          "type": "uint256"
        }
      ],
      "name": "safeTransferFrom",
      "outputs": [],
      "stateMutability": "nonpayable",
      "type": "function"
    },
    {
      "inputs": [
        {
          "internalType": "address",
          "name": "from",
          "type": "address"
        },
        {
          "internalType": "address",
          "name": "to",
          "type": "address"
        },
        {
          "internalType": "uint256",
          "name": "tokenId",
          "type": "uint256"
        },
        {
          "internalType": "bytes",
          "name": "_data",
          "type": "bytes"
        }
      ],
      "name": "safeTransferFrom",
      "outputs": [],
      "stateMutability": "nonpayable",
      "type": "function"
    },
    {
      "inputs": [
        {
          "internalType": "address",
          "name": "operator",
          "type": "address"
        },
        {
          "internalType": "bool",
          "name": "approved",
          "type": "bool"
        }
      ],
      "name": "setApprovalForAll",
      "outputs": [],
      "stateMutability": "nonpayable",
      "type": "function"
    },
    {
      "inputs": [
        {
          "internalType": "uint256",
          "name": "tokenId",
          "type": "uint256"
        },
        {
          "internalType": "string",
          "name": "tokenURI",
          "type": "string"
        }
      ],
      "name": "setTokenUri",
      "outputs": [],
      "stateMutability": "nonpayable",
      "type": "function"
    },
    {
      "inputs": [
        {
          "internalType": "bytes4",
          "name": "interfaceId",
          "type": "bytes4"
        }
      ],
      "name": "supportsInterface",
      "outputs": [
        {
          "internalType": "bool",
          "name": "",
          "type": "bool"
        }
      ],
      "stateMutability": "view",
      "type": "function"
    },
    {
      "inputs": [],
      "name": "symbol",
      "outputs": [
        {
          "internalType": "string",
          "name": "",
          "type": "string"
        }
      ],
      "stateMutability": "view",
      "type": "function"
    },
    {
      "inputs": [
        {
          "internalType": "uint256",
          "name": "tokenId",
          "type": "uint256"
        }
      ],
      "name": "tokenURI",
      "outputs": [
        {
          "internalType": "string",
          "name": "",
          "type": "string"
        }
      ],
      "stateMutability": "view",
      "type": "function"
    },
    {
      "inputs": [
        {
          "internalType": "address",
          "name": "from",
          "type": "address"
        },
        {
          "internalType": "address",
          "name": "to",
          "type": "address"
        },
        {
          "internalType": "uint256",
          "name": "tokenId",
          "type": "uint256"
        }
      ],
      "name": "transferFrom",
      "outputs": [],
      "stateMutability": "nonpayable",
      "type": "function"
    },
    {
      "inputs": [
        {
          "internalType": "address",
          "name": "newOwner",
          "type": "address"
        }
      ],
      "name": "transferOwnership",
      "outputs": [],
      "stateMutability": "nonpayable",
      "type": "function"
    }
  ],
  "bytecode": "0x60806040523480156200001157600080fd5b506040518060400160405280600a81526020017f596f75666f756e646d65000000000000000000000000000000000000000000008152506040518060400160405280600381526020017f59464d0000000000000000000000000000000000000000000000000000000000815250816000908051906020019062000096929190620001a6565b508060019080519060200190620000af929190620001a6565b505050620000d2620000c6620000d860201b60201c565b620000e060201b60201c565b620002bb565b600033905090565b6000600760009054906101000a900473ffffffffffffffffffffffffffffffffffffffff16905081600760006101000a81548173ffffffffffffffffffffffffffffffffffffffff021916908373ffffffffffffffffffffffffffffffffffffffff1602179055508173ffffffffffffffffffffffffffffffffffffffff168173ffffffffffffffffffffffffffffffffffffffff167f8be0079c531659141344cd1fd0a4f28419497f9722a3daafe3b4186f6b6457e060405160405180910390a35050565b828054620001b49062000256565b90600052602060002090601f016020900481019282620001d8576000855562000224565b82601f10620001f357805160ff191683800117855562000224565b8280016001018555821562000224579182015b828111156200022357825182559160200191906001019062000206565b5b50905062000233919062000237565b5090565b5b808211156200025257600081600090555060010162000238565b5090565b600060028204905060018216806200026f57607f821691505b602082108114156200028657620002856200028c565b5b50919050565b7f4e487b7100000000000000000000000000000000000000000000000000000000600052602260045260246000fd5b61300080620002cb6000396000f3fe608060405234801561001057600080fd5b50600436106101215760003560e01c80636352211e116100ad578063a22cb46511610071578063a22cb46514610308578063b88d4fde14610324578063c87b56dd14610340578063e985e9c514610370578063f2fde38b146103a057610121565b80636352211e1461026257806370a0823114610292578063715018a6146102c25780638da5cb5b146102cc57806395d89b41146102ea57610121565b80631e576912116100f45780631e576912146101c057806323b872dd146101f0578063313ce5671461020c57806342842e0e1461022a57806357f7789e1461024657610121565b806301ffc9a71461012657806306fdde0314610156578063081812fc14610174578063095ea7b3146101a4575b600080fd5b610140600480360381019061013b9190612023565b6103bc565b60405161014d91906128f0565b60405180910390f35b61015e61049e565b60405161016b919061290b565b60405180910390f35b61018e60048036038101906101899190612075565b610530565b60405161019b9190612889565b60405180910390f35b6101be60048036038101906101b99190611f80565b6105b5565b005b6101da60048036038101906101d59190611fbc565b6106cd565b6040516101e791906128f0565b60405180910390f35b61020a60048036038101906102059190611e7a565b61076a565b005b6102146107ca565b6040516102219190612b88565b60405180910390f35b610244600480360381019061023f9190611e7a565b6107cf565b005b610260600480360381019061025b919061209e565b6107ef565b005b61027c60048036038101906102779190612075565b610879565b6040516102899190612889565b60405180910390f35b6102ac60048036038101906102a79190611e15565b61092b565b6040516102b99190612b6d565b60405180910390f35b6102ca6109e3565b005b6102d4610a6b565b6040516102e19190612889565b60405180910390f35b6102f2610a95565b6040516102ff919061290b565b60405180910390f35b610322600480360381019061031d9190611f44565b610b27565b005b61033e60048036038101906103399190611ec9565b610b3d565b005b61035a60048036038101906103559190612075565b610b9f565b604051610367919061290b565b60405180910390f35b61038a60048036038101906103859190611e3e565b610cf1565b60405161039791906128f0565b60405180910390f35b6103ba60048036038101906103b59190611e15565b610d85565b005b60007f80ac58cd000000000000000000000000000000000000000000000000000000007bffffffffffffffffffffffffffffffffffffffffffffffffffffffff1916827bffffffffffffffffffffffffffffffffffffffffffffffffffffffff1916148061048757507f5b5e139f000000000000000000000000000000000000000000000000000000007bffffffffffffffffffffffffffffffffffffffffffffffffffffffff1916827bffffffffffffffffffffffffffffffffffffffffffffffffffffffff1916145b80610497575061049682610e7d565b5b9050919050565b6060600080546104ad90612df5565b80601f01602080910402602001604051908101604052809291908181526020018280546104d990612df5565b80156105265780601f106104fb57610100808354040283529160200191610526565b820191906000526020600020905b81548152906001019060200180831161050957829003601f168201915b5050505050905090565b600061053b82610ee7565b61057a576040517f08c379a000000000000000000000000000000000000000000000000000000000815260040161057190612aad565b60405180910390fd5b6004600083815260200190815260200160002060009054906101000a900473ffffffffffffffffffffffffffffffffffffffff169050919050565b60006105c082610879565b90508073ffffffffffffffffffffffffffffffffffffffff168373ffffffffffffffffffffffffffffffffffffffff161415610631576040517f08c379a000000000000000000000000000000000000000000000000000000000815260040161062890612b2d565b60405180910390fd5b8073ffffffffffffffffffffffffffffffffffffffff16610650610f53565b73ffffffffffffffffffffffffffffffffffffffff16148061067f575061067e81610679610f53565b610cf1565b5b6106be576040517f08c379a00000000000000000000000000000000000000000000000000000000081526004016106b5906129ed565b60405180910390fd5b6106c88383610f5b565b505050565b60006106d7610f53565b73ffffffffffffffffffffffffffffffffffffffff166106f5610a6b565b73ffffffffffffffffffffffffffffffffffffffff161461074b576040517f08c379a000000000000000000000000000000000000000000000000000000000815260040161074290612acd565b60405180910390fd5b6107558484611014565b61075f83836111e2565b600190509392505050565b61077b610775610f53565b82611256565b6107ba576040517f08c379a00000000000000000000000000000000000000000000000000000000081526004016107b190612b4d565b60405180910390fd5b6107c5838383611334565b505050565b600090565b6107ea83838360405180602001604052806000815250610b3d565b505050565b6107f7610f53565b73ffffffffffffffffffffffffffffffffffffffff16610815610a6b565b73ffffffffffffffffffffffffffffffffffffffff161461086b576040517f08c379a000000000000000000000000000000000000000000000000000000000815260040161086290612acd565b60405180910390fd5b61087582826111e2565b5050565b6000806002600084815260200190815260200160002060009054906101000a900473ffffffffffffffffffffffffffffffffffffffff169050600073ffffffffffffffffffffffffffffffffffffffff168173ffffffffffffffffffffffffffffffffffffffff161415610922576040517f08c379a000000000000000000000000000000000000000000000000000000000815260040161091990612a2d565b60405180910390fd5b80915050919050565b60008073ffffffffffffffffffffffffffffffffffffffff168273ffffffffffffffffffffffffffffffffffffffff16141561099c576040517f08c379a000000000000000000000000000000000000000000000000000000000815260040161099390612a0d565b60405180910390fd5b600360008373ffffffffffffffffffffffffffffffffffffffff1673ffffffffffffffffffffffffffffffffffffffff168152602001908152602001600020549050919050565b6109eb610f53565b73ffffffffffffffffffffffffffffffffffffffff16610a09610a6b565b73ffffffffffffffffffffffffffffffffffffffff1614610a5f576040517f08c379a0000000000000000000000000000000000000000000000000000000008152600401610a5690612acd565b60405180910390fd5b610a696000611590565b565b6000600760009054906101000a900473ffffffffffffffffffffffffffffffffffffffff16905090565b606060018054610aa490612df5565b80601f0160208091040260200160405190810160405280929190818152602001828054610ad090612df5565b8015610b1d5780601f10610af257610100808354040283529160200191610b1d565b820191906000526020600020905b815481529060010190602001808311610b0057829003601f168201915b5050505050905090565b610b39610b32610f53565b8383611656565b5050565b610b4e610b48610f53565b83611256565b610b8d576040517f08c379a0000000000000000000000000000000000000000000000000000000008152600401610b8490612b4d565b60405180910390fd5b610b99848484846117c3565b50505050565b6060610baa82610ee7565b610be9576040517f08c379a0000000000000000000000000000000000000000000000000000000008152600401610be090612a8d565b60405180910390fd5b6000600660008481526020019081526020016000208054610c0990612df5565b80601f0160208091040260200160405190810160405280929190818152602001828054610c3590612df5565b8015610c825780601f10610c5757610100808354040283529160200191610c82565b820191906000526020600020905b815481529060010190602001808311610c6557829003601f168201915b505050505090506000610c9361181f565b9050600081511415610ca9578192505050610cec565b600082511115610cde578082604051602001610cc6929190612865565b60405160208183030381529060405292505050610cec565b610ce784611836565b925050505b919050565b6000600560008473ffffffffffffffffffffffffffffffffffffffff1673ffffffffffffffffffffffffffffffffffffffff16815260200190815260200160002060008373ffffffffffffffffffffffffffffffffffffffff1673ffffffffffffffffffffffffffffffffffffffff16815260200190815260200160002060009054906101000a900460ff16905092915050565b610d8d610f53565b73ffffffffffffffffffffffffffffffffffffffff16610dab610a6b565b73ffffffffffffffffffffffffffffffffffffffff1614610e01576040517f08c379a0000000000000000000000000000000000000000000000000000000008152600401610df890612acd565b60405180910390fd5b600073ffffffffffffffffffffffffffffffffffffffff168173ffffffffffffffffffffffffffffffffffffffff161415610e71576040517f08c379a0000000000000000000000000000000000000000000000000000000008152600401610e689061294d565b60405180910390fd5b610e7a81611590565b50565b60007f01ffc9a7000000000000000000000000000000000000000000000000000000007bffffffffffffffffffffffffffffffffffffffffffffffffffffffff1916827bffffffffffffffffffffffffffffffffffffffffffffffffffffffff1916149050919050565b60008073ffffffffffffffffffffffffffffffffffffffff166002600084815260200190815260200160002060009054906101000a900473ffffffffffffffffffffffffffffffffffffffff1673ffffffffffffffffffffffffffffffffffffffff1614159050919050565b600033905090565b816004600083815260200190815260200160002060006101000a81548173ffffffffffffffffffffffffffffffffffffffff021916908373ffffffffffffffffffffffffffffffffffffffff160217905550808273ffffffffffffffffffffffffffffffffffffffff16610fce83610879565b73ffffffffffffffffffffffffffffffffffffffff167f8c5be1e5ebec7d5bd14f71427d1e84f3dd0314c0f7b2291e5b200ac8c7c3b92560405160405180910390a45050565b600073ffffffffffffffffffffffffffffffffffffffff168273ffffffffffffffffffffffffffffffffffffffff161415611084576040517f08c379a000000000000000000000000000000000000000000000000000000000815260040161107b90612a6d565b60405180910390fd5b61108d81610ee7565b156110cd576040517f08c379a00000000000000000000000000000000000000000000000000000000081526004016110c49061296d565b60405180910390fd5b6110d9600083836118dd565b6001600360008473ffffffffffffffffffffffffffffffffffffffff1673ffffffffffffffffffffffffffffffffffffffff16815260200190815260200160002060008282546111299190612c77565b92505081905550816002600083815260200190815260200160002060006101000a81548173ffffffffffffffffffffffffffffffffffffffff021916908373ffffffffffffffffffffffffffffffffffffffff160217905550808273ffffffffffffffffffffffffffffffffffffffff16600073ffffffffffffffffffffffffffffffffffffffff167fddf252ad1be2c89b69c2b068fc378daa952ba7f163c4a11628f55a4df523b3ef60405160405180910390a45050565b6111eb82610ee7565b61122a576040517f08c379a000000000000000000000000000000000000000000000000000000000815260040161122190612a4d565b60405180910390fd5b80600660008481526020019081526020016000209080519060200190611251929190611c39565b505050565b600061126182610ee7565b6112a0576040517f08c379a0000000000000000000000000000000000000000000000000000000008152600401611297906129cd565b60405180910390fd5b60006112ab83610879565b90508073ffffffffffffffffffffffffffffffffffffffff168473ffffffffffffffffffffffffffffffffffffffff16148061131a57508373ffffffffffffffffffffffffffffffffffffffff1661130284610530565b73ffffffffffffffffffffffffffffffffffffffff16145b8061132b575061132a8185610cf1565b5b91505092915050565b8273ffffffffffffffffffffffffffffffffffffffff1661135482610879565b73ffffffffffffffffffffffffffffffffffffffff16146113aa576040517f08c379a00000000000000000000000000000000000000000000000000000000081526004016113a190612aed565b60405180910390fd5b600073ffffffffffffffffffffffffffffffffffffffff168273ffffffffffffffffffffffffffffffffffffffff16141561141a576040517f08c379a00000000000000000000000000000000000000000000000000000000081526004016114119061298d565b60405180910390fd5b6114258383836118dd565b611430600082610f5b565b6001600360008573ffffffffffffffffffffffffffffffffffffffff1673ffffffffffffffffffffffffffffffffffffffff16815260200190815260200160002060008282546114809190612cfe565b925050819055506001600360008473ffffffffffffffffffffffffffffffffffffffff1673ffffffffffffffffffffffffffffffffffffffff16815260200190815260200160002060008282546114d79190612c77565b92505081905550816002600083815260200190815260200160002060006101000a81548173ffffffffffffffffffffffffffffffffffffffff021916908373ffffffffffffffffffffffffffffffffffffffff160217905550808273ffffffffffffffffffffffffffffffffffffffff168473ffffffffffffffffffffffffffffffffffffffff167fddf252ad1be2c89b69c2b068fc378daa952ba7f163c4a11628f55a4df523b3ef60405160405180910390a4505050565b6000600760009054906101000a900473ffffffffffffffffffffffffffffffffffffffff16905081600760006101000a81548173ffffffffffffffffffffffffffffffffffffffff021916908373ffffffffffffffffffffffffffffffffffffffff1602179055508173ffffffffffffffffffffffffffffffffffffffff168173ffffffffffffffffffffffffffffffffffffffff167f8be0079c531659141344cd1fd0a4f28419497f9722a3daafe3b4186f6b6457e060405160405180910390a35050565b8173ffffffffffffffffffffffffffffffffffffffff168373ffffffffffffffffffffffffffffffffffffffff1614156116c5576040517f08c379a00000000000000000000000000000000000000000000000000000000081526004016116bc906129ad565b60405180910390fd5b80600560008573ffffffffffffffffffffffffffffffffffffffff1673ffffffffffffffffffffffffffffffffffffffff16815260200190815260200160002060008473ffffffffffffffffffffffffffffffffffffffff1673ffffffffffffffffffffffffffffffffffffffff16815260200190815260200160002060006101000a81548160ff0219169083151502179055508173ffffffffffffffffffffffffffffffffffffffff168373ffffffffffffffffffffffffffffffffffffffff167f17307eab39ab6107e8899845ad3d59bd9653f200f220920489ca2b5937696c31836040516117b691906128f0565b60405180910390a3505050565b6117ce848484611334565b6117da848484846118e2565b611819576040517f08c379a00000000000000000000000000000000000000000000000000000000081526004016118109061292d565b60405180910390fd5b50505050565b606060405180602001604052806000815250905090565b606061184182610ee7565b611880576040517f08c379a000000000000000000000000000000000000000000000000000000000815260040161187790612b0d565b60405180910390fd5b600061188a61181f565b905060008151116118aa57604051806020016040528060008152506118d5565b806118b484611a79565b6040516020016118c5929190612865565b6040516020818303038152906040525b915050919050565b505050565b60006119038473ffffffffffffffffffffffffffffffffffffffff16611c26565b15611a6c578373ffffffffffffffffffffffffffffffffffffffff1663150b7a0261192c610f53565b8786866040518563ffffffff1660e01b815260040161194e94939291906128a4565b602060405180830381600087803b15801561196857600080fd5b505af192505050801561199957506040513d601f19601f82011682018060405250810190611996919061204c565b60015b611a1c573d80600081146119c9576040519150601f19603f3d011682016040523d82523d6000602084013e6119ce565b606091505b50600081511415611a14576040517f08c379a0000000000000000000000000000000000000000000000000000000008152600401611a0b9061292d565b60405180910390fd5b805181602001fd5b63150b7a0260e01b7bffffffffffffffffffffffffffffffffffffffffffffffffffffffff1916817bffffffffffffffffffffffffffffffffffffffffffffffffffffffff191614915050611a71565b600190505b949350505050565b60606000821415611ac1576040518060400160405280600181526020017f30000000000000000000000000000000000000000000000000000000000000008152509050611c21565b600082905060005b60008214611af3578080611adc90612e27565b915050600a82611aec9190612ccd565b9150611ac9565b60008167ffffffffffffffff811115611b35577f4e487b7100000000000000000000000000000000000000000000000000000000600052604160045260246000fd5b6040519080825280601f01601f191660200182016040528015611b675781602001600182028036833780820191505090505b5090505b60008514611c1a57600182611b809190612cfe565b9150600a85611b8f9190612e70565b6030611b9b9190612c77565b60f81b818381518110611bd7577f4e487b7100000000000000000000000000000000000000000000000000000000600052603260045260246000fd5b60200101907effffffffffffffffffffffffffffffffffffffffffffffffffffffffffffff1916908160001a905350600a85611c139190612ccd565b9450611b6b565b8093505050505b919050565b600080823b905060008111915050919050565b828054611c4590612df5565b90600052602060002090601f016020900481019282611c675760008555611cae565b82601f10611c8057805160ff1916838001178555611cae565b82800160010185558215611cae579182015b82811115611cad578251825591602001919060010190611c92565b5b509050611cbb9190611cbf565b5090565b5b80821115611cd8576000816000905550600101611cc0565b5090565b6000611cef611cea84612bd4565b612ba3565b905082815260208101848484011115611d0757600080fd5b611d12848285612db3565b509392505050565b6000611d2d611d2884612c04565b612ba3565b905082815260208101848484011115611d4557600080fd5b611d50848285612db3565b509392505050565b600081359050611d6781612f6e565b92915050565b600081359050611d7c81612f85565b92915050565b600081359050611d9181612f9c565b92915050565b600081519050611da681612f9c565b92915050565b600082601f830112611dbd57600080fd5b8135611dcd848260208601611cdc565b91505092915050565b600082601f830112611de757600080fd5b8135611df7848260208601611d1a565b91505092915050565b600081359050611e0f81612fb3565b92915050565b600060208284031215611e2757600080fd5b6000611e3584828501611d58565b91505092915050565b60008060408385031215611e5157600080fd5b6000611e5f85828601611d58565b9250506020611e7085828601611d58565b9150509250929050565b600080600060608486031215611e8f57600080fd5b6000611e9d86828701611d58565b9350506020611eae86828701611d58565b9250506040611ebf86828701611e00565b9150509250925092565b60008060008060808587031215611edf57600080fd5b6000611eed87828801611d58565b9450506020611efe87828801611d58565b9350506040611f0f87828801611e00565b925050606085013567ffffffffffffffff811115611f2c57600080fd5b611f3887828801611dac565b91505092959194509250565b60008060408385031215611f5757600080fd5b6000611f6585828601611d58565b9250506020611f7685828601611d6d565b9150509250929050565b60008060408385031215611f9357600080fd5b6000611fa185828601611d58565b9250506020611fb285828601611e00565b9150509250929050565b600080600060608486031215611fd157600080fd5b6000611fdf86828701611d58565b9350506020611ff086828701611e00565b925050604084013567ffffffffffffffff81111561200d57600080fd5b61201986828701611dd6565b9150509250925092565b60006020828403121561203557600080fd5b600061204384828501611d82565b91505092915050565b60006020828403121561205e57600080fd5b600061206c84828501611d97565b91505092915050565b60006020828403121561208757600080fd5b600061209584828501611e00565b91505092915050565b600080604083850312156120b157600080fd5b60006120bf85828601611e00565b925050602083013567ffffffffffffffff8111156120dc57600080fd5b6120e885828601611dd6565b9150509250929050565b6120fb81612d32565b82525050565b61210a81612d44565b82525050565b600061211b82612c34565b6121258185612c4a565b9350612135818560208601612dc2565b61213e81612f5d565b840191505092915050565b600061215482612c3f565b61215e8185612c5b565b935061216e818560208601612dc2565b61217781612f5d565b840191505092915050565b600061218d82612c3f565b6121978185612c6c565b93506121a7818560208601612dc2565b80840191505092915050565b60006121c0603283612c5b565b91507f4552433732313a207472616e7366657220746f206e6f6e20455243373231526560008301527f63656976657220696d706c656d656e74657200000000000000000000000000006020830152604082019050919050565b6000612226602683612c5b565b91507f4f776e61626c653a206e6577206f776e657220697320746865207a65726f206160008301527f64647265737300000000000000000000000000000000000000000000000000006020830152604082019050919050565b600061228c601c83612c5b565b91507f4552433732313a20746f6b656e20616c7265616479206d696e746564000000006000830152602082019050919050565b60006122cc602483612c5b565b91507f4552433732313a207472616e7366657220746f20746865207a65726f2061646460008301527f72657373000000000000000000000000000000000000000000000000000000006020830152604082019050919050565b6000612332601983612c5b565b91507f4552433732313a20617070726f766520746f2063616c6c6572000000000000006000830152602082019050919050565b6000612372602c83612c5b565b91507f4552433732313a206f70657261746f7220717565727920666f72206e6f6e657860008301527f697374656e7420746f6b656e00000000000000000000000000000000000000006020830152604082019050919050565b60006123d8603883612c5b565b91507f4552433732313a20617070726f76652063616c6c6572206973206e6f74206f7760008301527f6e6572206e6f7220617070726f76656420666f7220616c6c00000000000000006020830152604082019050919050565b600061243e602a83612c5b565b91507f4552433732313a2062616c616e636520717565727920666f7220746865207a6560008301527f726f2061646472657373000000000000000000000000000000000000000000006020830152604082019050919050565b60006124a4602983612c5b565b91507f4552433732313a206f776e657220717565727920666f72206e6f6e657869737460008301527f656e7420746f6b656e00000000000000000000000000000000000000000000006020830152604082019050919050565b600061250a602e83612c5b565b91507f45524337323155524953746f726167653a2055524920736574206f66206e6f6e60008301527f6578697374656e7420746f6b656e0000000000000000000000000000000000006020830152604082019050919050565b6000612570602083612c5b565b91507f4552433732313a206d696e7420746f20746865207a65726f20616464726573736000830152602082019050919050565b60006125b0603183612c5b565b91507f45524337323155524953746f726167653a2055524920717565727920666f722060008301527f6e6f6e6578697374656e7420746f6b656e0000000000000000000000000000006020830152604082019050919050565b6000612616602c83612c5b565b91507f4552433732313a20617070726f76656420717565727920666f72206e6f6e657860008301527f697374656e7420746f6b656e00000000000000000000000000000000000000006020830152604082019050919050565b600061267c602083612c5b565b91507f4f776e61626c653a2063616c6c6572206973206e6f7420746865206f776e65726000830152602082019050919050565b60006126bc602983612c5b565b91507f4552433732313a207472616e73666572206f6620746f6b656e2074686174206960008301527f73206e6f74206f776e00000000000000000000000000000000000000000000006020830152604082019050919050565b6000612722602f83612c5b565b91507f4552433732314d657461646174613a2055524920717565727920666f72206e6f60008301527f6e6578697374656e7420746f6b656e00000000000000000000000000000000006020830152604082019050919050565b6000612788602183612c5b565b91507f4552433732313a20617070726f76616c20746f2063757272656e74206f776e6560008301527f72000000000000000000000000000000000000000000000000000000000000006020830152604082019050919050565b60006127ee603183612c5b565b91507f4552433732313a207472616e736665722063616c6c6572206973206e6f74206f60008301527f776e6572206e6f7220617070726f7665640000000000000000000000000000006020830152604082019050919050565b61285081612d9c565b82525050565b61285f81612da6565b82525050565b60006128718285612182565b915061287d8284612182565b91508190509392505050565b600060208201905061289e60008301846120f2565b92915050565b60006080820190506128b960008301876120f2565b6128c660208301866120f2565b6128d36040830185612847565b81810360608301526128e58184612110565b905095945050505050565b60006020820190506129056000830184612101565b92915050565b600060208201905081810360008301526129258184612149565b905092915050565b60006020820190508181036000830152612946816121b3565b9050919050565b6000602082019050818103600083015261296681612219565b9050919050565b600060208201905081810360008301526129868161227f565b9050919050565b600060208201905081810360008301526129a6816122bf565b9050919050565b600060208201905081810360008301526129c681612325565b9050919050565b600060208201905081810360008301526129e681612365565b9050919050565b60006020820190508181036000830152612a06816123cb565b9050919050565b60006020820190508181036000830152612a2681612431565b9050919050565b60006020820190508181036000830152612a4681612497565b9050919050565b60006020820190508181036000830152612a66816124fd565b9050919050565b60006020820190508181036000830152612a8681612563565b9050919050565b60006020820190508181036000830152612aa6816125a3565b9050919050565b60006020820190508181036000830152612ac681612609565b9050919050565b60006020820190508181036000830152612ae68161266f565b9050919050565b60006020820190508181036000830152612b06816126af565b9050919050565b60006020820190508181036000830152612b2681612715565b9050919050565b60006020820190508181036000830152612b468161277b565b9050919050565b60006020820190508181036000830152612b66816127e1565b9050919050565b6000602082019050612b826000830184612847565b92915050565b6000602082019050612b9d6000830184612856565b92915050565b6000604051905081810181811067ffffffffffffffff82111715612bca57612bc9612f2e565b5b8060405250919050565b600067ffffffffffffffff821115612bef57612bee612f2e565b5b601f19601f8301169050602081019050919050565b600067ffffffffffffffff821115612c1f57612c1e612f2e565b5b601f19601f8301169050602081019050919050565b600081519050919050565b600081519050919050565b600082825260208201905092915050565b600082825260208201905092915050565b600081905092915050565b6000612c8282612d9c565b9150612c8d83612d9c565b9250827fffffffffffffffffffffffffffffffffffffffffffffffffffffffffffffffff03821115612cc257612cc1612ea1565b5b828201905092915050565b6000612cd882612d9c565b9150612ce383612d9c565b925082612cf357612cf2612ed0565b5b828204905092915050565b6000612d0982612d9c565b9150612d1483612d9c565b925082821015612d2757612d26612ea1565b5b828203905092915050565b6000612d3d82612d7c565b9050919050565b60008115159050919050565b60007fffffffff0000000000000000000000000000000000000000000000000000000082169050919050565b600073ffffffffffffffffffffffffffffffffffffffff82169050919050565b6000819050919050565b600060ff82169050919050565b82818337600083830152505050565b60005b83811015612de0578082015181840152602081019050612dc5565b83811115612def576000848401525b50505050565b60006002820490506001821680612e0d57607f821691505b60208210811415612e2157612e20612eff565b5b50919050565b6000612e3282612d9c565b91507fffffffffffffffffffffffffffffffffffffffffffffffffffffffffffffffff821415612e6557612e64612ea1565b5b600182019050919050565b6000612e7b82612d9c565b9150612e8683612d9c565b925082612e9657612e95612ed0565b5b828206905092915050565b7f4e487b7100000000000000000000000000000000000000000000000000000000600052601160045260246000fd5b7f4e487b7100000000000000000000000000000000000000000000000000000000600052601260045260246000fd5b7f4e487b7100000000000000000000000000000000000000000000000000000000600052602260045260246000fd5b7f4e487b7100000000000000000000000000000000000000000000000000000000600052604160045260246000fd5b6000601f19601f8301169050919050565b612f7781612d32565b8114612f8257600080fd5b50565b612f8e81612d44565b8114612f9957600080fd5b50565b612fa581612d50565b8114612fb057600080fd5b50565b612fbc81612d9c565b8114612fc757600080fd5b5056fea26469706673582212206d42a7c6d7ce25f5faab53f97eaecceb7e063741a2c936ade51c361abe30a1cf64736f6c63430008000033",
  "linkReferences": {},
  "deployedLinkReferences": {}
}